{
  "contractName": "Auctions",
  "abi": [
    {
      "inputs": [],
      "stateMutability": "nonpayable",
      "type": "constructor"
    },
    {
      "anonymous": false,
      "inputs": [
        {
          "indexed": false,
          "internalType": "address",
          "name": "bidder",
          "type": "address"
        },
        {
          "indexed": false,
          "internalType": "uint256",
          "name": "amount",
          "type": "uint256"
        }
      ],
      "name": "moveFunds",
      "type": "event"
    },
    {
      "inputs": [
        {
          "internalType": "address",
          "name": "",
          "type": "address"
        }
      ],
      "name": "bidderBalance",
      "outputs": [
        {
          "internalType": "uint256",
          "name": "",
          "type": "uint256"
        }
      ],
      "stateMutability": "view",
      "type": "function",
      "constant": true
    },
    {
      "inputs": [],
      "name": "highestBid",
      "outputs": [
        {
          "internalType": "uint256",
          "name": "",
          "type": "uint256"
        }
      ],
      "stateMutability": "view",
      "type": "function",
      "constant": true
    },
    {
      "inputs": [],
      "name": "highestBidder",
      "outputs": [
        {
          "internalType": "address",
          "name": "",
          "type": "address"
        }
      ],
      "stateMutability": "view",
      "type": "function",
      "constant": true
    },
    {
      "stateMutability": "payable",
      "type": "receive",
      "payable": true
    },
    {
      "inputs": [],
      "name": "bid",
      "outputs": [],
      "stateMutability": "payable",
      "type": "function",
      "payable": true
    },
    {
      "inputs": [],
      "name": "withdraw",
      "outputs": [
        {
          "internalType": "bool",
          "name": "",
          "type": "bool"
        }
      ],
      "stateMutability": "nonpayable",
      "type": "function"
    }
  ],
  "bytecode": "0x608060405234801561001057600080fd5b50336000806101000a81548173ffffffffffffffffffffffffffffffffffffffff021916908373ffffffffffffffffffffffffffffffffffffffff16021790555060006001819055506106d3806100686000396000f3fe60806040526004361061004e5760003560e01c8063048fae731461005a5780631998aeef146100975780633ccfd60b146100a157806391f90157146100cc578063d57bde79146100f757610055565b3661005557005b600080fd5b34801561006657600080fd5b50610081600480360381019061007c9190610485565b610122565b60405161008e91906105c0565b60405180910390f35b61009f61013a565b005b3480156100ad57600080fd5b506100b6610251565b6040516100c39190610565565b60405180910390f35b3480156100d857600080fd5b506100e1610446565b6040516100ee9190610521565b60405180910390f35b34801561010357600080fd5b5061010c61046a565b60405161011991906105c0565b60405180910390f35b60026020528060005260406000206000915090505481565b600154341161017e576040517f08c379a000000000000000000000000000000000000000000000000000000000815260040161017590610580565b60405180910390fd5b6001543411156101cf57600154600260003373ffffffffffffffffffffffffffffffffffffffff1673ffffffffffffffffffffffffffffffffffffffff168152602001908152602001600020819055505b34600181905550336000806101000a81548173ffffffffffffffffffffffffffffffffffffffff021916908373ffffffffffffffffffffffffffffffffffffffff1602179055507f3e4760537289db25f0a5e1ec3aa50fe7cc81eb30306910af835db44b751a082b333460405161024792919061053c565b60405180910390a1565b6000806000600260003373ffffffffffffffffffffffffffffffffffffffff1673ffffffffffffffffffffffffffffffffffffffff16815260200190815260200160002054905060008054906101000a900473ffffffffffffffffffffffffffffffffffffffff1673ffffffffffffffffffffffffffffffffffffffff163373ffffffffffffffffffffffffffffffffffffffff161415610327576040517f08c379a000000000000000000000000000000000000000000000000000000000815260040161031e906105a0565b60405180910390fd5b600081111561043d576000600260003373ffffffffffffffffffffffffffffffffffffffff1673ffffffffffffffffffffffffffffffffffffffff168152602001908152602001600020819055503373ffffffffffffffffffffffffffffffffffffffff166108fc600260003373ffffffffffffffffffffffffffffffffffffffff1673ffffffffffffffffffffffffffffffffffffffff168152602001908152602001600020549081150290604051600060405180830381858888f1935050505061043c5780600260003373ffffffffffffffffffffffffffffffffffffffff1673ffffffffffffffffffffffffffffffffffffffff16815260200190815260200160002081905550811592505050610443565b5b81925050505b90565b60008054906101000a900473ffffffffffffffffffffffffffffffffffffffff1681565b60015481565b60008135905061047f81610686565b92915050565b60006020828403121561049757600080fd5b60006104a584828501610470565b91505092915050565b6104b7816105ec565b82525050565b6104c6816105fe565b82525050565b60006104d96013836105db565b91506104e482610634565b602082019050919050565b60006104fc601e836105db565b91506105078261065d565b602082019050919050565b61051b8161062a565b82525050565b600060208201905061053660008301846104ae565b92915050565b600060408201905061055160008301856104ae565b61055e6020830184610512565b9392505050565b600060208201905061057a60008301846104bd565b92915050565b60006020820190508181036000830152610599816104cc565b9050919050565b600060208201905081810360008301526105b9816104ef565b9050919050565b60006020820190506105d56000830184610512565b92915050565b600082825260208201905092915050565b60006105f78261060a565b9050919050565b60008115159050919050565b600073ffffffffffffffffffffffffffffffffffffffff82169050919050565b6000819050919050565b7f4e6f742074686520686967686573742062696400000000000000000000000000600082015250565b7f68696768657374206269646465722063616e2774207769746864726177210000600082015250565b61068f816105ec565b811461069a57600080fd5b5056fea2646970667358221220f5c600fa6dc1815cb3cac15e16f122238bdfa195dc3895b126ce04faed231a0964736f6c63430008020033",
  "immutableReferences": {},
  "source": "// SPDX-License-Identifier: GPL-3.0\npragma solidity >=0.7.0 <0.8.4;\n\n\ncontract Auctions{\n address public highestBidder;\n uint public highestBid;\n mapping(address=>uint) public bidderBalance;\n event moveFunds(address bidder, uint amount);\n \n constructor(){\n    highestBidder=msg.sender;\n    highestBid=0;\n }\n \n \n function bid() public payable{\n     \n\t /// Bid on the auction with the value sent\n\t /// together with this transaction.\n\t /// The value will only be refunded if the\n\t /// auction is not won.\n    require(msg.value>highestBid,\"Not the highest bid\"); \n    if(msg.value>highestBid)  \n         bidderBalance[msg.sender]=highestBid;\n\n    highestBid=msg.value;\n    highestBidder=msg.sender;\n    emit moveFunds(msg.sender,msg.value);\n   \n}\n\n \nfunction withdraw() public returns(bool){\nbool succesful;\nuint amount=bidderBalance[msg.sender];\n \n  require(msg.sender != highestBidder, \"highest bidder can't withdraw!\");\n  \n if(amount>0){\n    bidderBalance[msg.sender]=0;\n    \n   \n \n    if(!payable(msg.sender).send(bidderBalance[msg.sender])){\n        bidderBalance[msg.sender]=amount;\n    return !succesful;\n    }\n }\nreturn succesful;\n }\n\n     receive() external payable{}\n}\n\n",
  "sourcePath": "/home/antsangaris/Desktop/Auctions_app/contracts/Auctions.sol",
  "compiler": {
    "name": "solc",
    "version": "0.8.2+commit.661d1103.Emscripten.clang"
  },
  "schemaVersion": "3.3.4",
  "updatedAt": "2021-05-24T11:32:08.004Z",
  "networkType": "ethereum",
  "devdoc": {
    "kind": "dev",
    "methods": {},
    "version": 1
  },
  "userdoc": {
    "kind": "user",
    "methods": {},
    "version": 1
  }
}